:020000040800F2
:1000000008050020A11500087D1500087F150008CF
:100010008115000883150008851500080000000000
:10002000000000000000000000000000871500082C
:1000300089150008000000008B1500088D150008C8
:10004000BD150008C1150008C5150008C915000830
:10005000CD150008D1150008D5150008D9150008E0
:10006000DD150008E1150008E5150008E915000890
:10007000ED150008F1150008F5150008F915000840
:10008000FD150008011600080516000809160008ED
:100090000D1600081116000815160008191600089C
:1000A0001D1600082116000825160008291600084C
:1000B0002D1600086F0E00083116000835160008CE
:1000C000391600083D1600084116000845160008BC
:1000D000491600084D16000851160008551600086C
:1000E000591600085D16000861160008651600081C
:1000F000691600086D1600087116000875160008CC
:10010000791600087D16000881160008851600087B
:10011000891600088D16000891160008951600082B
:10012000991600089D160008A1160008A5160008DB
:10013000A9160008AD160008B1160008B51600088B
:10014000B9160008BD160008C1160008C51600083B
:10015000C9160008CD160008D1160008D5160008EB
:10016000D9160008DD160008E1160008E51600089B
:10017000E9160008ED160008F1160008F51600084B
:10018000F9160008FD1600082DE9FC47050065D0AA
:10019000DFF87876DFF88466BC68F86800F003085A
:1001A0002878C10604F00C0448D524B10C2C08BFF3
:1001B000B8F1010F2CD13868810702D5A869002851
:1001C0004CD0396808074EBF396871680909286A38
:1001D00001F0F001814206D200F0DEFA00283DD1A4
:1001E00000F0F5F907E000F0F2F924B9286A00F010
:1001F000D3FA002832D100F086FABA6800F079FA12
:10020000DFF81006006800F01DFB010016D0D8E1F1
:10021000A86928B3396841F00101396000F034FB66
:1002200081463868810707D400F02EFBA0EB090057
:100230000328F6D30320C4E100F0C9F92878C107E8
:1002400056D5082C04D00C2C08BFB8F1030F18D1D8
:10025000386881034CD56868002849D10120B0E195
:10026000386840084000386000F00EFB814638686E
:100270008107E3D500F008FBA0EB09000328F6D3C3
:10028000D8E76868B0F5803F04D1386840F4803022
:10029000386011E0B0F5A02F386806D140F4802016
:1002A0003860396841F4803105E020F480303860EE
:1002B000396821F480213960686860B100F0E4FA9F
:1002C00081463868810313D400F0DEFAA0EB090000
:1002D0006528F6D3AEE700F0D7FA81463868810387
:1002E00006D500F0D1FAA0EB09006528F6D3A1E706
:1002F0002878810713D5042C04D00C2C08BFB8F142
:10030000020F22D13868410502D5E8680028A5D03F
:100310007868296920F0F85040EA01607860287810
:10032000010743D568690028706830D040F00100AB
:10033000706000F0A9FA80467068810736D400F03A
:10034000A3FA00F040F9F7D374E7E86878B13968A8
:1003500041F48071396000F097FA804638684105B1
:10036000D6D400F091FA00F02EF9F7D362E738689E
:1003700020F48070386000F087FA804638684105C4
:10038000CDD500F081FA00F01EF9F7D352E740080E
:100390004000706000F078FA80467068810705D5EB
:1003A00000F072FA00F00FF9F7D343E7287841071D
:1003B00067D5B86DC1004FF000080AD4B86D40F0A1
:1003C0008050B8654FF00108B86D00F08050009083
:1003D0000098DFF84C94D9F80000C10513D4D9F87F
:1003E000000040F48070C9F8000000F04DFA824629
:1003F000D9F80000C10506D400F046FAA0EB0A00C7
:100400000328F5D316E7A868012804D1306840F026
:100410000100306010E00528306806D140F004008B
:100420003060316841F0010105E040084000306073
:10043000316821F004013160A86841F2893960B166
:1004400000F022FA82463068810713D400F01CFACB
:10045000A0EB0A004845F6D3ECE600F015FA824618
:100460003068810706D500F00FFAA0EB0A00484576
:10047000F6D3DFE6B8F1000F03D0B86D20F080505E
:10048000B865A86A002800F09B80022878D1F86837
:10049000EA6A00F00301914201BF00F070012A6B8B
:1004A000521EB1EB021F1ED16A6B00F4FE41B1EB8C
:1004B000022F18D1A96B07290CBF0021012100F4DC
:1004C00000328A420FD1EA6B520800F4C001521E7A
:1004D000B1EB425F07D1296C490800F0C060491EAA
:1004E000B0EB416F48D00C2C4BD03868410101D49F
:1004F0003868C1003FF5B2AE386820F080703860CF
:1005000000F0C2F904463868810105D500F0BCF955
:10051000001B0328F7D38DE6F868DFF80813EA6AB2
:100520000840296B1043491E40EA0110EA6B696BD1
:10053000520840EA0120296C521E490840EA425004
:10054000491E40EA4160A96B090940EA4140F86050
:10055000386840F080703860F96841F08071F96067
:1005600000F092F904463868810129D400F08CF932
:10057000001B0328F7D35DE63868810120D4E7E744
:100580000C2C3FF46BAE386820F08070386039680E
:1005900011F0205F03D1F86880088000F860F968E6
:1005A000DFF884020140F96000F06EF90446386813
:1005B000810105D500F068F9001B0328F7D339E65F
:1005C0000020BDE8F687A0EB0800032870473868D4
:1005D00040F0080038603968286A21F0F0010143D2
:1005E00039607968E86921F47F4141EA0021796046
:1005F00070472DE9F0410400884658D0DFF82C629E
:10060000306800F00700404509D23168C90848EA5F
:10061000C1013160306800F00700404547D12078C3
:10062000DFF8E851C1072AD56068032802D129689C
:100630008A0108E0022802D129688A0303E0002821
:10064000296802D18A0702D431E04A052FD5A9686A
:10065000890840EA8100A86000F016F90746A868FA
:10066000616800F00C00B0EB810F08D000F00CF9CD
:10067000C01B41F289318842F1D3032037E0207852
:10068000810705D5AA68A06822F0F0020243AA609B
:10069000316801F0070188450BD23068C00848EA8C
:1006A000C0003060316801F00701414501D00120F0
:1006B0001DE02078410705D5AA68E06822F4E062D1
:1006C0000243AA602178080706D5A968206921F4A9
:1006D000605141EAC001A96000F015F8AA6800F075
:1006E00008F8BDE8F0414B48006800F0ABB8BDE841
:1006F000F0814F49C2F30312895C454A01F01F01A2
:10070000C8401060704770B5404A4A4B9068D66840
:100710000025002110F00C0006F00306464C03D023
:100720000C2812D1012E1AD115682E0704D43A4D87
:100730002E68C6F3032502E01568C5F303153F4E86
:1007400056F8255048B9294624E0042808BF214618
:1007500020D008281ED119461CE00C281AD1D068D8
:1007600000F00300022803D0032808BF1D4600E064
:100770002546D168D068D268C0F306204543C1F34E
:100780000210C2F34161401C491CB5FBF0F0490066
:10079000B0FBF1F1084670BD7CB5294E05463068C6
:1007A0000024C10002D500F075F80EE0306840F07A
:1007B00080503060316801F080510091009800F065
:1007C00069F8316821F080513160B0F5007F04D1C3
:1007D000802D0CD9A12D09D304E0802D88BF0324DE
:1007E00005D801D1022402E0702D00D101240F4868
:1007F0000168C90844EAC1010160006800F007000F
:10080000A04201D0012076BD002076BD001002403C
:100810003800002030000020941002409010024068
:10082000007000408C809DF9FFFFEEFE002002402A
:100830005014000800127A000024F40098140008F4
:100840005810024070B50E4E044630780025A0B115
:100850004FF47A710B4AB1FBF0F11068B0FBF1F084
:1008600000F0BBF848B9102C07D2002221464FF007
:10087000FF3000F089F8B46000E00125284670BD23
:10088000280000203800002001484068704700BF61
:1008900028000020DFF8B000006800F4C060704756
:1008A00010B5DFF8A410B0F5007F086800F4C06050
:1008B00019D1B0F5007F1FD00868DFF89020DFF86D
:1008C000904020F4C06040F4007000F034F800E084
:1008D000401E4A69530501D50028F9D148694105F0
:1008E0000AD5032010BDB0F5806F05D0086820F44C
:1008F000C06040F480600860002010BD12480168AC
:1009000041F480410160704710B50F490F4A0868F3
:100910000F4C20F4804000F00EF800E0401E4A69C1
:10092000930501D50028F9D14869810501D5032037
:1009300010BD002010BD0860322013684343B3FB94
:10094000F4F0401C704700000070004038000020A8
:1009500040420F000901020002D42A488154704726
:10096000294B02F00F021A4402F8041C7047274B6F
:1009700019684FF6FF020002114000F4E0600843DE
:10098000234908431860704770B5204B1C68C4F3B6
:1009900002230124C3F10705052D2EBF0F2504FAFC
:1009A00005F56D1E1E1D072E34BF0023DB1E2940DA
:1009B000994004FA03F3BDE870405B1E1A401143EE
:1009C000C8E70000010007D4012200F01F01114B0D
:1009D0008A40400943F82020704710B5401EB0F10E
:1009E000807F01D3012010BD0B4C60600F214FF0C0
:1009F000FF30FFF7AFFF0021A1600720206000203B
:100A000010BD000000E400E018ED00E00CED00E097
:100A10000000FA0500E100E010E000E038B5040055
:100A200001D1012032BD00F06BF818B900F064F874
:100A300000F082F93CE090F83D10012901D001203E
:100A40007047022180F83D100168CA6842F0010237
:100A5000CA600168DFF88400814218BFB1F1804F9D
:100A600012D0DFF87C0081421CBFDFF87820914271
:100A70000AD0DFF8740081421FBFDFF87020914276
:100A8000DFF86C0081420DD18A68DFF8680002400F
:100A9000062A18BFB2F5803F08D0086840F0010070
:100AA000086003E00A6842F001020A600020704713
:100AB00002206870211D206800F0D7F801202873FB
:100AC000A870E87028716871A871E871287268725E
:100AD000A872E8726870002032BD0000002C01404E
:100AE0000004004000080040000C004000340140B9
:100AF0000040014007000100002129702046704796
:100B000004F13C056878704710B504462068016917
:100B10008A0715D5C1688A0712D56FF002010161F5
:100B200001222277806910F0030F204602D000F0E6
:100B300004F903E000F002F900F094F800202077B7
:100B4000206801694A0715D5C1684A0712D56FF0B8
:100B50000401016102222277806910F4407F20465F
:100B600002D000F0EAF803E000F0E8F800F07AF8CC
:100B700000202077206801690A0715D5C1680A0797
:100B800012D56FF00801016104222277C06910F0CC
:100B9000030F204602D000F0D0F803E000F0CEF8BA
:100BA00000F060F80020207720680169CA0615D59A
:100BB000C168CA0612D56FF01001016108222277C0
:100BC000C06910F4407F204602D000F0B6F803E080
:100BD00000F0B4F800F046F80020207720680169A2
:100BE000CA0708D5C168CA0705D56FF001010161C0
:100BF000204600F047F9206801690A0608D5C16857
:100C00000A0605D56FF080010161204600F040F929
:100C100020680169CA0508D5C1680A0605D56FF4C0
:100C200080710161204600F034F9206801694A06AC
:100C300008D5C1684A0605D56FF04001016120461C
:100C400000F028F9206801698A060AD5C1688A0679
:100C500007D56FF0200101612046BDE8104000F08B
:100C60001AB910BD204600F017B92DE9F043DFF89E
:100C7000A870D0F800C0DFF8A430DFF8A440DFF897
:100C8000A450DFF8A460DFF8A4E0DFF8A480DFF868
:100C9000A490B84218BFB0F1804F07D0484518BFA4
:100CA000404503D0704518BFB0420ED14A68B842E3
:100CB0002CF0700C18BFB0F1804F42EA0C0C0CD035
:100CC00048451CBF4045704507D0B04218BFA842F8
:100CD00003D0A04218BF984204D1CA682CF4407CCB
:100CE00042EA0C0C4A692CF0800C42EA0C020260C9
:100CF000B8428A68C26218BFB0420A68826204D0F1
:100D0000A8421CBFA042984201D109690163012297
:100D10004261BDE8F0830000002C01400048014022
:100D2000004401400040014000340140000C0040FC
:100D3000000800400004004070477047704730B41E
:100D4000002513E050F8042BD30744BFA9F1010399
:100D50009A18091F042942F8045BFAD213468C073B
:100D600044BF15809B1CC90748BF1D7050F8041B69
:100D70000029E7D130BC704710B596B000F08EF86E
:100D80004422002105A800F098F8142200216846AA
:100D900000F093F84FF40070FFF782FD08B100F007
:100DA00075F800F095F8334CA06B40F01800A06384
:100DB00014210122059107920B92B02100220C927E
:100DC0000D910F9205A8FFF7DFF908B172B6FEE7A3
:100DD0000F20002100900191029103910491684637
:100DE0000421FFF706FC08B172B6FEE700F09AF89E
:100DF000206840F002002060012221681E4C01F0B2
:100E000002010091002100981D20FFF7BDFD1D206B
:100E1000FFF7D8FD19481A4920604FF4FA530A68C1
:100E2000B2FBF3F340F69F705B1E60600021E3604D
:100E30002161A160A1612046FFF7F0FD2046FFF788
:100E4000FAFD002000F076F800F0ACF80FF219027D
:100E50000021012000F022F94FF0FF3000F0B9F836
:100E6000FAE700F05FB90000002000F087B8024800
:100E7000FFF74ABE58100240BC00002000040040AA
:100E8000380000200021012000F015B972B6FEE7FD
:100E9000704770477047704770470000032010B5D7
:100EA000FFF765FD0F20FFF7CDFC0024002814BFDD
:100EB000012400F041F9204610BD10B5044610464B
:100EC0000A460146204600F04FF9204610BD0000BA
:100ED0001148016841F480710160704710B50C46FB
:100EE0000E490028086805D1810507D5FFF70CFDDC
:100EF00020B110BD810558BFFFF700FD084801680B
:100F000021F00401012C016001D130BF10BD40BFB0
:100F100020BF20BF10BD00000070004014700040D2
:100F200010ED00E00248016841F0040101607047E3
:100F30000010024010B586B0044600F027F82000EB
:100F400009D11548016841F001010160006800F015
:100F500001000090009800BF11A1104831F8142042
:100F6000019201210291002202210392049101A920
:100F700050F8240000F02CF906B010BD08A2074B71
:100F800032F8101053F8200000F000BA14220021AB
:100F900001A8FFF792BF00004C100240340000206F
:100FA0002000000010B54C4C0020206180214FF043
:100FB000FF306061A0610020E0612062606247480C
:100FC00000F0FEF9002000210022002384E80F0039
:100FD00010BD2DE9F047404CDFF80091A56928408D
:100FE000A0614FF0FF3A4FF0010830E0491C54F87F
:100FF00031000642FAD004EBC10618407168104077
:10100000014208BFC6F804A07768384000F068F8CD
:10101000606208FA00F087437760EFF3108172B6E0
:10102000626A206908FA02F2D2431040206102206D
:1010300004EBC00353F8086C1640401E43F8086CDC
:10104000F6D181F31088606A59F8201088476369E7
:101050002069A2691840104207D0E069216A08425D
:1010600003D1002103EA0206C1E7C4F824A000F07E
:10107000AAF9EFF3108972B621696069A26901408B
:10108000114201BFE069216A0842FFF7EAFE89F3D5
:10109000108800F099F9A561BDE8F08738B51446CD
:1010A000EFF3108572B600F01BF80C4941F82040B0
:1010B00085F3108831BD30B5EFF3108272B6064B60
:1010C0001C6904431C6153F83150284343F8310034
:1010D00082F3108830BD0000000000203C0000209A
:1010E00002460020110C090404BF1020120412F063
:1010F0007F4F04BF0830120206A312F0704F04BFE6
:10110000001D1201120FC0F11F00995C401AC0B2FD
:101110007047000004030202010101010000000009
:101120000000000080B500F051F9BDE80440012145
:101130000020FFF7D3BE00000A4881B0816841F06B
:1011400001018160816801F001010091009902684C
:1011500042F080520260006800F0805000900098D9
:1011600001B070475810024062F30F2262F31F4231
:10117000401810F0030308D0C91A1FD3DB0748BF7B
:1011800000F8012D28BF20F8022D130030B41446BA
:101190001546103928BF20E93C00FAD8490728BF76
:1011A00020E90C0048BF40F8042D890028BF20F832
:1011B000022D48BF00F8012D30BC7047C91818BF78
:1011C00000F8012DCB0728BF00F8012D7047000063
:1011D0002DE9F84F4FF00009704A714B4FF00F089E
:1011E00005460E4634E06F4CA54214BF0724062482
:1011F0008C406D493C4341F82C40C143146801EADE
:10120000040C7468E40348BF40EA0C0CC2F800C048
:10121000546801EA040C7468A40348BF40EA0C0C4B
:10122000C2F804C0946801EA040C7468E40248BF80
:1012300040EA0C0CC2F808C0D46801EA040C7168DA
:10124000890248BF40EA0C0CC2F80CC009F1010940
:10125000316831FA09F000F09780012404FA09F4AA
:1012600014EA0100F2D04FEA490C032101FA0CF113
:101270006FEA010E7168E443012918BF022903D007
:10128000112918BF122910D1A968F7680EEA0101C7
:1012900007FA0CF73943A96069687768C7F3001744
:1012A000214007FA09F739436960716801F00307C3
:1012B000032F07D1EF6AC1F3C0013C4001FA09F1E5
:1012C0000C43EC62E968B4680EEA010104FA0CF41C
:1012D0002143E9604FEA89017468022C18BF122C7F
:1012E00012D14FEAD90405EB840401F01C07D4F8AD
:1012F00020A008FA07FB2AEA0B0AD6F810B00BFA6E
:1013000007F747EA0A0727622C680EEA04073479D0
:1013100004F0030404FA0CF43C432C607468E40009
:1013200094D51C6844F001041C604FEA990C1C68B9
:1013300004F00104009401F00C01009C1A4C54F8D4
:101340002C4008FA01F724EA0707B5F1904F08BFCF
:10135000002418D0154CA54208BF012413D0144C0A
:10136000A54208BF02240ED0124CA54208BF032498
:1013700009D0114CA54208BF042404D00F4CA5424B
:101380007FF431AF052433E7BDE8F18F426901EA0C
:101390000203914341EA0341816170470004014027
:1013A0006010024000180048080001400004004896
:1013B00000080048000C00480010004800140048D5
:1013C000002200F00BB87047704700000248016827
:1013D00021F002010160704710E000E000B500BF9D
:1013E000130096469446103928BFA0E80C50FAD84E
:1013F0005FEA417C28BF0CC048BF40F8042BC907F6
:1014000028BF20F8022B48BF00F8012B00BD0000C8
:101410000C48016841F47001016000220A49086823
:1014200040F0010008608A604FF480520B68074862
:1014300003400B60CA6000200B6823F480230B601C
:101440008861704788ED00E000100240FFFFF6EA77
:101450000000000000000000010203040607080964
:1014600030B5016884684218416802EB5103C9072E
:1014700003D54C4401E0491C05D19A420AD012F927
:10148000011B12F8015B002904F8015BF3D4491E2B
:10149000F7D5F2E70C3030BDA0860100400D030007
:1014A000801A060000350C0040420F0080841E00A8
:1014B00000093D0000127A000024F40000366E019D
:1014C0000048E801006CDC0210B507497944183186
:1014D000064C7C44163404E00A68081D1144884711
:1014E0000146A142F8D110BD2C00000048000000C8
:1014F0004EF68851CEF20001086840F47000086092
:10150000BFF34F8FBFF36F8F4FF00070E1EE100A03
:10151000704700002BF8FFFFCC0000003C000020CB
:10152000000000003DFFFFFFD80100002800000080
:101530000000002000F00DF8002801D0FFF7C4FFE4
:10154000AFF300800020AFF30080FFF715FC00F040
:1015500002F80120704700F001B800000746384645
:1015600000F002F8FBE7000080B5AFF30080024A0C
:1015700011001820ABBEFBE726000200FEE7FEE7E5
:10158000FEE7FEE7FEE770477047704700F000B8DF
:101590000248416802788A1842607047280000209B
:1015A000014880470148004711140008B1150008A0
:1015B000AFF30080FFF79CFFFFF7BCFFFFF7FEBF14
:1015C000FFF7FEBFFFF7FEBFFFF7FEBFFFF7FEBF4F
:1015D000FFF7FEBFFFF7FEBFFFF7FEBFFFF7FEBF3F
:1015E000FFF7FEBFFFF7FEBFFFF7FEBFFFF7FEBF2F
:1015F000FFF7FEBFFFF7FEBFFFF7FEBFFFF7FEBF1F
:10160000FFF7FEBFFFF7FEBFFFF7FEBFFFF7FEBF0E
:10161000FFF7FEBFFFF7FEBFFFF7FEBFFFF7FEBFFE
:10162000FFF7FEBFFFF7FEBFFFF7FEBFFFF7FEBFEE
:10163000FFF7FEBFFFF7FEBFFFF7FEBFFFF7FEBFDE
:10164000FFF7FEBFFFF7FEBFFFF7FEBFFFF7FEBFCE
:10165000FFF7FEBFFFF7FEBFFFF7FEBFFFF7FEBFBE
:10166000FFF7FEBFFFF7FEBFFFF7FEBFFFF7FEBFAE
:10167000FFF7FEBFFFF7FEBFFFF7FEBFFFF7FEBF9E
:10168000FFF7FEBFFFF7FEBFFFF7FEBFFFF7FEBF8E
:10169000FFF7FEBFFFF7FEBFFFF7FEBFFFF7FEBF7E
:1016A000FFF7FEBFFFF7FEBFFFF7FEBFFFF7FEBF6E
:1016B000FFF7FEBFFFF7FEBFFFF7FEBFFFF7FEBF5E
:1016C000FFF7FEBFFFF7FEBFFFF7FEBFFFF7FEBF4E
:1016D000FFF7FEBFFFF7FEBFFFF7FEBFFFF7FEBF3E
:1016E000FFF7FEBFFFF7FEBFFFF7FEBFFFF7FEBF2E
:1016F000FFF7FEBFFFF7FEBFFFF7FEBFFFF7FEBF1E
:10170000EC00F8FFF4000001F9000010FA000448B2
:0417100000093D008F
:04000005080015B129
:00000001FF
